:020000040000FA
:100000009C009C009C009C00A400A400A400A400F0
:10001000A400A400A400A4009C009C00A400A400D0
:100020009C009C00A400A400940094009C009C00F0
:100030009C009C009C009C009C009C009C009C00E0
:100040009C009C009C009C009C009C00A400A400C0
:10005000A400A400A400A400AC00AC00AC00AC0060
:10006000AC00AC00AC00AC00AC00AC00A400A40040
:10007000940094009C009C007C007C007400740040
:100080005C005C005C005C00540054006C006C0080
:100090006C006C0064006400640064006C006C0020
:1000A0006C006C006C006C006C006C006C006C00F0
:1000B0006C006C006C006C006C006C006C006C00E0
:1000C0006C006C006C006C00640064006C006C00E0
:1000D0006C006C0074007400740074007C007C0080
:1000E000740074007C007C007C007C007400740050
:1000F000740074007C007C007C007C008400840020
:1001000084008400840084007C007C0084008400DF
:100110008400840084008400840084007C007C00CF
:100120008400840084008400840084007C007C00BF
:100130007C007C007C007C00840084008C008C00AF
:100140007C007C008400840084008400840084009F
:1001500084008400840084008C008C00840084006F
:100160008C008C008400840084008400840084005F
:10017000840084008C008C0084008400840084004F
:100180008C008C008400840084008400840084003F
:1001900084008400840084008C008C00840084002F
:1001A0008C008C0084008400840084007C007C002F
:1001B000840084008400840084008400840084001F
:1001C000840084008C008C008400840084008400FF
:1001D00084008400840084007C007C00840084000F
:1001E0008C008C00840084008400840084008400DF
:1001F00084008400840084007C007C0084008400EF
:100200008C008C0084008400840084007C007C00CE
:10021000840084007C007C008C008C0084008400BE
:1002200084008400840084007C007C008C008C00AE
:10023000840084007C007C007C007C0084008400BE
:100240007C007C008400840084008400840084009E
:10025000840084007C007C00840084007C007C009E
:100260007C007C007C007C00740074007C007C00BE
:10027000740074006C006C0074007400640064000E
:1002800064006400740074007C007C0084008400BE
:100290008C008C00940094009C009C009C009C00AE
:1002A0009C009C00A400A400A400A4009C009C004E
:1002B000940094009C009C009C009C00940094007E
:1002C000940094009C009C009C009C00940094006E
:1002D0009C009C009C009C009C009C00940094004E
:1002E0009C009C009C009C009C009C009C009C002E
:1002F0009C009C009C009C009C009C009C009C001E
:100300009C009C009C009C009C009C009C009C000D
:100310009C009C00A400A4009C009C009C009C00ED
:100320009C009C009C009C00BC00BC00CC00CC004D
:10033000D400D400D400D400DC00DC00DC00DC00FD
:10034000DC00DC00D400D400C400C400940094009D
:100350006C006C006400640064006400640064006D
:10036000740074007C007C007400740074007400DD
:10037000840084007C007C00740074007C007C009D
:100380007C007C007C007C007C007C007C007C008D
:100390007C007C007C007C007C007C00740074008D
:1003A0007C007C00840084007C007C007C007C005D
:1003B0007C007C007C007C007C007C00740074006D
:1003C00084008400840084007C007C007C007C002D
:1003D0007C007C008400840084008400740074002D
:1003E0007400740074007400740074007C007C005D
:1003F00084008400A400A400AC00AC009C009C001D
:100400009C009C009C009C00A400A400A400A400EC
:10041000A400A400A400A4009C009C00A400A400CC
:100420009C009C00A400A400940094009C009C00EC
:100430009C009C009C009C009C009C009C009C00DC
:100440009C009C009C009C009C009C00A400A400BC
:10045000A400A400A400A400AC00AC00AC00AC005C
:10046000AC00AC00AC00AC00AC00AC00A400A4003C
:10047000940094009C009C007C007C00740074003C
:100480005C005C005C005C00540054006C006C007C
:100490006C006C0064006400640064006C006C001C
:1004A0006C006C006C006C006C006C006C006C00EC
:1004B0006C006C006C006C006C006C006C006C00DC
:1004C0006C006C006C006C00640064006C006C00DC
:1004D0006C006C0074007400740074007C007C007C
:1004E000740074007C007C007C007C00740074004C
:1004F000740074007C007C007C007C00840084001C
:1005000084008400840084007C007C0084008400DB
:100510008400840084008400840084007C007C00CB
:100520008400840084008400840084007C007C00BB
:100530007C007C007C007C00840084008C008C00AB
:100540007C007C008400840084008400840084009B
:1005500084008400840084008C008C00840084006B
:100560008C008C008400840084008400840084005B
:10057000840084008C008C0084008400840084004B
:100580008C008C008400840084008400840084003B
:1005900084008400840084008C008C00840084002B
:1005A0008C008C0084008400840084007C007C002B
:1005B000840084008400840084008400840084001B
:1005C000840084008C008C008400840084008400FB
:1005D00084008400840084007C007C00840084000B
:1005E0008C008C00840084008400840084008400DB
:1005F00084008400840084007C007C0084008400EB
:100600008C008C0084008400840084007C007C00CA
:10061000840084007C007C008C008C0084008400BA
:1006200084008400840084007C007C008C008C00AA
:10063000840084007C007C007C007C0084008400BA
:100640007C007C008400840084008400840084009A
:10065000840084007C007C00840084007C007C009A
:100660007C007C007C007C00740074007C007C00BA
:10067000740074006C006C0074007400640064000A
:1006800064006400740074007C007C0084008400BA
:100690008C008C00940094009C009C009C009C00AA
:1006A0009C009C00A400A400A400A4009C009C004A
:1006B000940094009C009C009C009C00940094007A
:1006C000940094009C009C009C009C00940094006A
:1006D0009C009C009C009C009C009C00940094004A
:1006E0009C009C009C009C009C009C009C009C002A
:1006F0009C009C009C009C009C009C009C009C001A
:100700009C009C009C009C009C009C009C009C0009
:100710009C009C00A400A4009C009C009C009C00E9
:100720009C009C009C009C00BC00BC00CC00CC0049
:10073000D400D400D400D400DC00DC00DC00DC00F9
:10074000DC00DC00D400D400C400C4009400940099
:100750006C006C0064006400640064006400640069
:10076000740074007C007C007400740074007400D9
:10077000840084007C007C00740074007C007C0099
:100780007C007C007C007C007C007C007C007C0089
:100790007C007C007C007C007C007C007400740089
:1007A0007C007C00840084007C007C007C007C0059
:1007B0007C007C007C007C007C007C007400740069
:1007C00084008400840084007C007C007C007C0029
:1007D0007C007C0084008400840084007400740029
:1007E0007400740074007400740074007C007C0059
:1007F00084008400A400A400AC00AC009C009C0019
:10080000A400A400A400A400A400A400A400A400C8
:10081000A400A400A400A4009C009C00A400A400C8
:100820009C009C00A400A4009C009C009C009C00D8
:100830009C009C009C009C009C009C009C009C00D8
:100840009C009C009C009C009C009C009C009C00C8
:10085000AC00AC00A400A400AC00AC00AC00AC0048
:10086000AC00AC00AC00AC00AC00AC009C009C0048
:10087000940094009C009C00840084007400740028
:10088000640064005C005C005C005C006C006C0058
:100890006C006C00640064006C006C006C006C0008
:1008A0006C006C006C006C00640064006C006C00F8
:1008B0006C006C006C006C00740074006C006C00C8
:1008C0006C006C006C006C00640064006C006C00D8
:1008D0006C006C0074007400740074007C007C0078
:1008E0006C006C007C007C007C007C007400740058
:1008F0007C007C007C007C007C007C008400840008
:1009000084008400840084007C007C0084008400D7
:1009100084008400840084008400840084008400B7
:100920008C008C0084008400840084007C007C00A7
:10093000840084007C007C00840084008C008C0097
:100940008400840084008400840084008400840087
:100950008400840084008400840084008400840077
:10096000840084008C008C00840084008400840057
:10097000840084008C008C00840084008400840047
:100980008400840084008400840084008400840047
:100990008400840084008400840084008400840037
:1009A0008C008C0084008400840084008400840017
:1009B0008400840084008400840084008400840017
:1009C0008400840084008400840084008400840007
:1009D00084008400840084008400840084008400F7
:1009E0008C008C00840084008400840084008400D7
:1009F00084008400840084008400840084008400D7
:100A00008C008C0084008400840084007C007C00C6
:100A100084008400840084008400840084008400B6
:100A200084008400840084007C007C008C008C00A6
:100A30007C007C007C007C007C007C008C008C00B6
:100A40007C007C0084008400840084008400840096
:100A5000840084007C007C007C007C008400840096
:100A60007C007C007C007C00740074007C007C00B6
:100A700074007400740074007400740064006400F6
:100A800064006400740074007C007C0084008400B6
:100A90008C008C00940094009C009C0094009400B6
:100AA0009C009C00A400A400A400A4009C009C0046
:100AB000940094009C009C009C009C009400940076
:100AC0009C009C009C009C009C009C009C009C0046
:100AD000A400A4009C009C009C009C009400940036
:100AE0009C009C009C009C009C009C009400940036
:100AF0009C009C009C009C009C009C009C009C0016
:100B00009C009C009C009C009C009C009C009C0005
:100B10009C009C00A400A4009C009C009C009C00E5
:100B20009C009C009C009C00C400C400CC00CC0035
:100B3000CC00CC00D400D400D400D400DC00DC0015
:100B4000DC00DC00D400D400C400C4009C009C0085
:100B50006C006C00640064006C006C006C006C0045
:100B6000740074007C007C007400740074007400D5
:100B7000840084007C007C00740074007C007C0095
:100B80007C007C007C007C007C007C007C007C0085
:100B9000740074007C007C007C007C007400740095
:100BA00074007400840084007C007C007C007C0065
:100BB0007C007C007C007C007C007C007C007C0055
:100BC0007C007C007C007C007C007C007C007C0045
:100BD0007C007C00840084007C007C007400740035
:100BE0007400740074007400740074007C007C0055
:100BF00084008400AC00AC00AC00AC009C009C0005
:100C0000A400A400A400A400A400A400A400A400C4
:100C1000A400A400A400A4009C009C00A400A400C4
:100C20009C009C00A400A4009C009C009C009C00D4
:100C30009C009C009C009C009C009C009C009C00D4
:100C40009C009C009C009C009C009C009C009C00C4
:100C5000AC00AC00A400A400AC00AC00AC00AC0044
:100C6000AC00AC00AC00AC00AC00AC009C009C0044
:100C7000940094009C009C00840084007400740024
:100C8000640064005C005C005C005C006C006C0054
:100C90006C006C00640064006C006C006C006C0004
:100CA0006C006C006C006C00640064006C006C00F4
:100CB0006C006C006C006C00740074006C006C00C4
:100CC0006C006C006C006C00640064006C006C00D4
:100CD0006C006C0074007400740074007C007C0074
:100CE0006C006C007C007C007C007C007400740054
:100CF0007C007C007C007C007C007C008400840004
:100D000084008400840084007C007C0084008400D3
:100D100084008400840084008400840084008400B3
:100D20008C008C0084008400840084007C007C00A3
:100D3000840084007C007C00840084008C008C0093
:100D40008400840084008400840084008400840083
:100D50008400840084008400840084008400840073
:100D6000840084008C008C00840084008400840053
:100D7000840084008C008C00840084008400840043
:100D80008400840084008400840084008400840043
:100D90008400840084008400840084008400840033
:100DA0008C008C0084008400840084008400840013
:100DB0008400840084008400840084008400840013
:100DC0008400840084008400840084008400840003
:100DD00084008400840084008400840084008400F3
:100DE0008C008C00840084008400840084008400D3
:100DF00084008400840084008400840084008400D3
:100E00008C008C0084008400840084007C007C00C2
:100E100084008400840084008400840084008400B2
:100E200084008400840084007C007C008C008C00A2
:100E30007C007C007C007C007C007C008C008C00B2
:100E40007C007C0084008400840084008400840092
:100E5000840084007C007C007C007C008400840092
:100E60007C007C007C007C00740074007C007C00B2
:100E700074007400740074007400740064006400F2
:100E800064006400740074007C007C0084008400B2
:100E90008C008C00940094009C009C0094009400B2
:100EA0009C009C00A400A400A400A4009C009C0042
:100EB000940094009C009C009C009C009400940072
:100EC0009C009C009C009C009C009C009C009C0042
:100ED000A400A4009C009C009C009C009400940032
:100EE0009C009C009C009C009C009C009400940032
:100EF0009C009C009C009C009C009C009C009C0012
:100F00009C009C009C009C009C009C009C009C0001
:100F10009C009C00A400A4009C009C009C009C00E1
:100F20009C009C009C009C00C400C400CC00CC0031
:100F3000CC00CC00D400D400D400D400DC00DC0011
:100F4000DC00DC00D400D400C400C4009C009C0081
:100F50006C006C00640064006C006C006C006C0041
:100F6000740074007C007C007400740074007400D1
:100F7000840084007C007C00740074007C007C0091
:100F80007C007C007C007C007C007C007C007C0081
:100F9000740074007C007C007C007C007400740091
:100FA00074007400840084007C007C007C007C0061
:100FB0007C007C007C007C007C007C007C007C0051
:100FC0007C007C007C007C007C007C007C007C0041
:100FD0007C007C00840084007C007C007400740031
:100FE0007400740074007400740074007C007C0051
:100FF00084008400AC00AC00AC00AC009C009C0001
:10100000A400A400A400A400A400A400A400A400C0
:10101000A400A400A400A4009C009C009C009C00D0
:101020009C009C009C009C00940094009C009C00F0
:101030009C009C009C009C009C009C009C009C00D0
:101040009C009C009C009C009C009C009C009C00C0
:10105000A400A400A400A400AC00AC00AC00AC0050
:10106000AC00AC00A400A400AC00AC00A400A40040
:10107000940094009C009C00840084007400740020
:10108000640064005C005C005C005C006C006C0050
:101090006C006C006C006C00640064006400640010
:1010A0006C006C006C006C006C006C006C006C00E0
:1010B0006C006C006C006C006C006C006C006C00D0
:1010C0006C006C006C006C00640064006C006C00D0
:1010D0006C006C0074007400740074007C007C0070
:1010E0006C006C007C007C007C007C007C007C0040
:1010F0007C007C00840084007C007C0084008400F0
:1011000084008400840084007C007C0084008400CF
:101110008400840084008400840084007C007C00BF
:101120008400840084008400840084007C007C00AF
:10113000840084007C007C00840084008C008C008F
:10114000840084008400840084008400840084007F
:10115000840084008400840084008400840084006F
:101160008C008C008C008C0084008400840084003F
:10117000840084008C008C0084008400840084003F
:10118000840084008400840084008400840084003F
:101190008C008C008400840084008400840084001F
:1011A0008C008C008400840084008400840084000F
:1011B000840084008400840084008400840084000F
:1011C000840084008C008C008400840084008400EF
:1011D00084008400840084008400840084008400EF
:1011E0008C008C0084008400840084008C008C00BF
:1011F00084008400840084008400840084008400CF
:101200008C008C0084008400840084007C007C00BE
:1012100084008400840084008400840084008400AE
:1012200084008400840084007C007C008C008C009E
:10123000840084007C007C007C007C0084008400AE
:101240007C007C008400840084008400840084008E
:10125000840084007C007C00840084007C007C008E
:101260007C007C007C007C00740074007C007C00AE
:10127000740074006C006C007400740064006400FE
:101280006C006C00740074007C007C00840084009E
:101290008C008C00940094009C009C009C009C009E
:1012A0009C009C00A400A400A400A4009C009C003E
:1012B00094009400940094009C009C00940094007E
:1012C000940094009C009C009C009C009C009C004E
:1012D0009C009C009C009C0094009400940094004E
:1012E0009C009C009C009C009C009C00940094002E
:1012F0009C009C009C009C009C009C009C009C000E
:101300009C009C009C009C009C009C009C009C00FD
:101310009C009C009C009C009C009C009C009C00ED
:101320009C009C009C009C00C400C400CC00CC002D
:10133000D400D400D400D400D400D400DC00DC00FD
:10134000DC00DC00D400D400C400C400940094008D
:101350006C006C006400640064006400640064005D
:10136000740074007C007C007400740074007400CD
:101370007C007C00740074007C007C007C007C009D
:101380007C007C007C007C007C007C007C007C007D
:101390007C007C007C007C007C007C007C007C006D
:1013A0007C007C00840084007C007C007C007C004D
:1013B0007C007C007C007C007C007C00740074005D
:1013C0007C007C007C007C007C007C007C007C003D
:1013D0007C007C00840084007C007C00740074002D
:1013E0007400740074007400740074007C007C004D
:1013F00084008400AC00AC00AC00AC009C009C00FD
:10140000A400A400A400A400A400A400A400A400BC
:10141000A400A400A400A4009C009C009C009C00CC
:101420009C009C009C009C00940094009C009C00EC
:101430009C009C009C009C009C009C009C009C00CC
:101440009C009C009C009C009C009C009C009C00BC
:10145000A400A400A400A400AC00AC00AC00AC004C
:10146000AC00AC00A400A400AC00AC00A400A4003C
:10147000940094009C009C0084008400740074001C
:10148000640064005C005C005C005C006C006C004C
:101490006C006C006C006C0064006400640064000C
:1014A0006C006C006C006C006C006C006C006C00DC
:1014B0006C006C006C006C006C006C006C006C00CC
:1014C0006C006C006C006C00640064006C006C00CC
:1014D0006C006C0074007400740074007C007C006C
:1014E0006C006C007C007C007C007C007C007C003C
:1014F0007C007C00840084007C007C0084008400EC
:1015000084008400840084007C007C0084008400CB
:101510008400840084008400840084007C007C00BB
:101520008400840084008400840084007C007C00AB
:10153000840084007C007C00840084008C008C008B
:10154000840084008400840084008400840084007B
:10155000840084008400840084008400840084006B
:101560008C008C008C008C0084008400840084003B
:10157000840084008C008C0084008400840084003B
:10158000840084008400840084008400840084003B
:101590008C008C008400840084008400840084001B
:1015A0008C008C008400840084008400840084000B
:1015B000840084008400840084008400840084000B
:1015C000840084008C008C008400840084008400EB
:1015D00084008400840084008400840084008400EB
:1015E0008C008C0084008400840084008C008C00BB
:1015F00084008400840084008400840084008400CB
:101600008C008C0084008400840084007C007C00BA
:1016100084008400840084008400840084008400AA
:1016200084008400840084007C007C008C008C009A
:10163000840084007C007C007C007C0084008400AA
:101640007C007C008400840084008400840084008A
:10165000840084007C007C00840084007C007C008A
:101660007C007C007C007C00740074007C007C00AA
:10167000740074006C006C007400740064006400FA
:101680006C006C00740074007C007C00840084009A
:101690008C008C00940094009C009C009C009C009A
:1016A0009C009C00A400A400A400A4009C009C003A
:1016B00094009400940094009C009C00940094007A
:1016C000940094009C009C009C009C009C009C004A
:1016D0009C009C009C009C0094009400940094004A
:1016E0009C009C009C009C009C009C00940094002A
:1016F0009C009C009C009C009C009C009C009C000A
:101700009C009C009C009C009C009C009C009C00F9
:101710009C009C009C009C009C009C009C009C00E9
:101720009C009C009C009C00C400C400CC00CC0029
:10173000D400D400D400D400D400D400DC00DC00F9
:10174000DC00DC00D400D400C400C4009400940089
:101750006C006C0064006400640064006400640059
:10176000740074007C007C007400740074007400C9
:101770007C007C00740074007C007C007C007C0099
:101780007C007C007C007C007C007C007C007C0079
:101790007C007C007C007C007C007C007C007C0069
:1017A0007C007C00840084007C007C007C007C0049
:1017B0007C007C007C007C007C007C007400740059
:1017C0007C007C007C007C007C007C007C007C0039
:1017D0007C007C00840084007C007C007400740029
:1017E0007400740074007400740074007C007C0049
:1017F00084008400AC00AC00AC00AC009C009C00F9
:10180000A400A400A400A400A400A4009C009C00C8
:101810009C009C009C009C009C009C009C009C00E8
:101820009C009C00940094009C009C009C009C00E8
:101830009400940094009400940094009C009C00F8
:101840009C009C009C009C00A400A400A400A40098
:10185000AC00AC00AC00AC00AC00AC00AC00AC0028
:10186000AC00AC00A400A400A400A4009C009C0058
:10187000940094008C008C007C007C006C006C0058
:10188000640064005C005C005C005C005C005C0068
:1018900064006400640064006C006C006C006C0008
:1018A000640064006C006C00640064006C006C00F8
:1018B000640064006C006C006C006C0064006400E8
:1018C000640064006C006C006400640074007400C8
:1018D0006C006C00740074007C007C007400740068
:1018E0007400740074007400840084007C007C0028
:1018F0007C007C00740074007C007C008400840008
:101900008400840084008400840084007C007C00C7
:101910007C007C007C007C008400840084008400C7
:101920008400840084008400840084008400840097
:101930007C007C0084008400840084008400840097
:1019400084008400840084008C008C008400840067
:101950008400840084008400840084008C008C0057
:101960008400840084008400840084008400840057
:10197000840084007C007C00840084008400840057
:101980008400840084008400840084008400840037
:101990008C008C0084008400840084008400840017
:1019A0008400840084008400840084008400840017
:1019B000840084007C007C00840084008400840017
:1019C00084008400840084008400840084008400F7
:1019D00084008400840084008400840084008400E7
:1019E00084008400840084008400840084008400D7
:1019F000840084007C007C008400840084008400D7
:101A000084008400840084008400840084008400B6
:101A100084008400840084007C007C0084008400B6
:101A20007C007C00840084007C007C007C007C00C6
:101A30007C007C007C007C008400840084008400A6
:101A400084008400840084007C007C007C007C0096
:101A500084008400840084007C007C007C007C0086
:101A60007C007C007C007C007C007C007C007C0096
:101A700074007400740074006C006C0064006400F6
:101A800064006400740074007C007C007C007C00B6
:101A90008C008C00940094008C008C009C009C00B6
:101AA0009C009C00A400A400A400A4009C009C0036
:101AB0009C009C0094009400940094009400940076
:101AC000940094009C009C009C009C009C009C0046
:101AD0009C009C009C009C009C009C009C009C0026
:101AE0009400940094009400940094009C009C0046
:101AF0009C009C009C009C00940094009C009C0016
:101B00009C009C009C009C009C009C009C009C00F5
:101B10009C009C009C009C009C009C009C009C00E5
:101B20009C009C0094009400AC00AC00C400C40075
:101B3000D400D400D400D400DC00DC00DC00DC00E5
:101B4000DC00DC00DC00DC00CC00CC00AC00AC0035
:101B5000840084006C006C00640064006C006C0005
:101B60006C006C00740074007400740074007400E5
:101B7000740074007C007C00740074007C007C00A5
:101B80007C007C007C007C00740074007400740095
:101B90007C007C007C007C007C007C007C007C0065
:101BA0007C007C007C007C007C007C007C007C0055
:101BB0007C007C00740074007C007C007C007C0055
:101BC0007C007C007C007C007C007C007C007C0035
:101BD0007C007C007C007C007C007C007C007C0025
:101BE00074007400740074007C007C008400840025
:101BF0007C007C007C007C005C005C003C003C00C5
:101C0000A400A400A400A400A400A4009C009C00C4
:101C10009C009C009C009C009C009C009C009C00E4
:101C20009C009C00940094009C009C009C009C00E4
:101C30009400940094009400940094009C009C00F4
:101C40009C009C009C009C00A400A400A400A40094
:101C5000AC00AC00AC00AC00AC00AC00AC00AC0024
:101C6000AC00AC00A400A400A400A4009C009C0054
:101C7000940094008C008C007C007C006C006C0054
:101C8000640064005C005C005C005C005C005C0064
:101C900064006400640064006C006C006C006C0004
:101CA000640064006C006C00640064006C006C00F4
:101CB000640064006C006C006C006C0064006400E4
:101CC000640064006C006C006400640074007400C4
:101CD0006C006C00740074007C007C007400740064
:101CE0007400740074007400840084007C007C0024
:101CF0007C007C00740074007C007C008400840004
:101D00008400840084008400840084007C007C00C3
:101D10007C007C007C007C008400840084008400C3
:101D20008400840084008400840084008400840093
:101D30007C007C0084008400840084008400840093
:101D400084008400840084008C008C008400840063
:101D50008400840084008400840084008C008C0053
:101D60008400840084008400840084008400840053
:101D7000840084007C007C00840084008400840053
:101D80008400840084008400840084008400840033
:101D90008C008C0084008400840084008400840013
:101DA0008400840084008400840084008400840013
:101DB000840084007C007C00840084008400840013
:101DC00084008400840084008400840084008400F3
:101DD00084008400840084008400840084008400E3
:101DE00084008400840084008400840084008400D3
:101DF000840084007C007C008400840084008400D3
:101E000084008400840084008400840084008400B2
:101E100084008400840084007C007C0084008400B2
:101E20007C007C00840084007C007C007C007C00C2
:101E30007C007C007C007C008400840084008400A2
:101E400084008400840084007C007C007C007C0092
:101E500084008400840084007C007C007C007C0082
:101E60007C007C007C007C007C007C007C007C0092
:101E700074007400740074006C006C0064006400F2
:101E800064006400740074007C007C007C007C00B2
:101E90008C008C00940094008C008C009C009C00B2
:101EA0009C009C00A400A400A400A4009C009C0032
:101EB0009C009C0094009400940094009400940072
:101EC000940094009C009C009C009C009C009C0042
:101ED0009C009C009C009C009C009C009C009C0022
:101EE0009400940094009400940094009C009C0042
:101EF0009C009C009C009C00940094009C009C0012
:101F00009C009C009C009C009C009C009C009C00F1
:101F10009C009C009C009C009C009C009C009C00E1
:101F20009C009C0094009400AC00AC00C400C40071
:101F3000D400D400D400D400DC00DC00DC00DC00E1
:101F4000DC00DC00DC00DC00CC00CC00AC00AC0031
:101F5000840084006C006C00640064006C006C0001
:101F60006C006C00740074007400740074007400E1
:101F7000740074007C007C00740074007C007C00A1
:101F80007C007C007C007C00740074007400740091
:101F90007C007C007C007C007C007C007C007C0061
:101FA0007C007C007C007C007C007C007C007C0051
:101FB0007C007C00740074007C007C007C007C0051
:101FC0007C007C007C007C007C007C007C007C0031
:101FD0007C007C007C007C007C007C007C007C0021
:101FE00074007400740074007C007C008400840021
:101FF0007C007C007C007C005C005C003C003C00C1
:102000009C009C009C009C009C009C009C009C00F0
:10201000A400A4009C009C009C009C009C009C00D0
:102020009C009C00A400A4009C009C009C009C00C0
:102030009C009C0094009400940094009C009C00E0
:102040009C009C009C009C00A400A400AC00AC0080
:10205000A400A400AC00AC00AC00AC00AC00AC0030
:10206000AC00AC00A400A400A400A400A400A40040
:10207000940094008C008C007C007C006C006C0050
:10208000640064005C005C00540054005C005C0070
:102090005C005C00640064006C006C006C006C0010
:1020A0006C006C006C006C006C006C006C006C00D0
:1020B000640064006C006C006C006C006C006C00D0
:1020C00064006400740074006C006C0064006400C0
:1020D0006C006C006C006C006C006C007400740090
:1020E0007C007C007C007C007C007C008400840000
:1020F0007C007C00840084007C007C0084008400E0
:102100007C007C007C007C007C007C0084008400DF
:102110008400840084008400840084007C007C00AF
:10212000840084008400840084008400840084008F
:102130007C007C008400840084008400840084008F
:102140007C007C008400840084008400840084007F
:10215000840084008400840084008400840084005F
:1021600084008400840084008C008C00840084003F
:10217000840084008C008C0084008400840084002F
:10218000840084008400840084008400840084002F
:10219000840084008400840084008400840084001F
:1021A000840084008400840084008400840084000F
:1021B000840084007C007C007C007C00840084001F
:1021C00084008400840084008C008C0084008400DF
:1021D00084008400840084008400840084008400DF
:1021E00084008400840084007C007C0084008400DF
:1021F0007C007C00840084008400840084008400CF
:102200008400840084008400840084007C007C00BE
:10221000840084007C007C008400840084008400AE
:102220007C007C008400840084008400840084009E
:102230007C007C008400840084008400840084008E
:102240007C007C00840084007C007C007C007C009E
:10225000840084007C007C007C007C007C007C008E
:102260007C007C007C007C007C007C007C007C008E
:1022700074007400740074006C006C006C006C00DE
:10228000640064006C006C00740074007C007C00CE
:10229000840084008C008C008C008C0094009400DE
:1022A0009C009C009C009C009C009C009C009C004E
:1022B0009C009C009C009C0094009400940094005E
:1022C000940094009C009C009C009C00940094004E
:1022D0009C009C009C009C009C009C009C009C001E
:1022E0009C009C009C009C009C009C009C009C000E
:1022F0009C009C00940094009C009C009C009C000E
:102300009C009C009C009C009C009C0094009400FD
:102310009C009C009C009C009C009C009C009C00DD
:10232000940094009C009C009C009C00BC00BC009D
:10233000CC00CC00D400D400D400D400D400D4000D
:10234000D400D400DC00DC00D400D400C400C400FD
:102350009C009C006C006C00640064006C006C00CD
:102360007400740074007400740074007C007C00BD
:102370007400740074007400740074007C007C00AD
:10238000740074007C007C00740074007C007C008D
:10239000740074007C007C007C007C007C007C006D
:1023A0007C007C007C007C007C007C007C007C004D
:1023B0007C007C007C007C007C007C007C007C003D
:1023C0007C007C007C007C00840084007C007C001D
:1023D0007C007C007C007C00840084007C007C000D
:1023E0007C007C007C007C00840084007C007C00FD
:1023F0005C005C003C003C002C002C002C002C00FD
:102400009C009C009C009C009C009C009C009C00EC
:10241000A400A4009C009C009C009C009C009C00CC
:102420009C009C00A400A4009C009C009C009C00BC
:102430009C009C0094009400940094009C009C00DC
:102440009C009C009C009C00A400A400AC00AC007C
:10245000A400A400AC00AC00AC00AC00AC00AC002C
:10246000AC00AC00A400A400A400A400A400A4003C
:10247000940094008C008C007C007C006C006C004C
:10248000640064005C005C00540054005C005C006C
:102490005C005C00640064006C006C006C006C000C
:1024A0006C006C006C006C006C006C006C006C00CC
:1024B000640064006C006C006C006C006C006C00CC
:1024C00064006400740074006C006C0064006400BC
:1024D0006C006C006C006C006C006C00740074008C
:1024E0007C007C007C007C007C007C0084008400FC
:1024F0007C007C00840084007C007C0084008400DC
:102500007C007C007C007C007C007C0084008400DB
:102510008400840084008400840084007C007C00AB
:10252000840084008400840084008400840084008B
:102530007C007C008400840084008400840084008B
:102540007C007C008400840084008400840084007B
:10255000840084008400840084008400840084005B
:1025600084008400840084008C008C00840084003B
:10257000840084008C008C0084008400840084002B
:10258000840084008400840084008400840084002B
:10259000840084008400840084008400840084001B
:1025A000840084008400840084008400840084000B
:1025B000840084007C007C007C007C00840084001B
:1025C00084008400840084008C008C0084008400DB
:1025D00084008400840084008400840084008400DB
:1025E00084008400840084007C007C0084008400DB
:1025F0007C007C00840084008400840084008400CB
:102600008400840084008400840084007C007C00BA
:10261000840084007C007C008400840084008400AA
:102620007C007C008400840084008400840084009A
:102630007C007C008400840084008400840084008A
:102640007C007C00840084007C007C007C007C009A
:10265000840084007C007C007C007C007C007C008A
:102660007C007C007C007C007C007C007C007C008A
:1026700074007400740074006C006C006C006C00DA
:10268000640064006C006C00740074007C007C00CA
:10269000840084008C008C008C008C0094009400DA
:1026A0009C009C009C009C009C009C009C009C004A
:1026B0009C009C009C009C0094009400940094005A
:1026C000940094009C009C009C009C00940094004A
:1026D0009C009C009C009C009C009C009C009C001A
:1026E0009C009C009C009C009C009C009C009C000A
:1026F0009C009C00940094009C009C009C009C000A
:102700009C009C009C009C009C009C0094009400F9
:102710009C009C009C009C009C009C009C009C00D9
:10272000940094009C009C009C009C00BC00BC0099
:10273000CC00CC00D400D400D400D400D400D40009
:10274000D400D400DC00DC00D400D400C400C400F9
:102750009C009C006C006C00640064006C006C00C9
:102760007400740074007400740074007C007C00B9
:102770007400740074007400740074007C007C00A9
:10278000740074007C007C00740074007C007C0089
:10279000740074007C007C007C007C007C007C0069
:1027A0007C007C007C007C007C007C007C007C0049
:1027B0007C007C007C007C007C007C007C007C0039
:1027C0007C007C007C007C00840084007C007C0019
:1027D0007C007C007C007C00840084007C007C0009
:1027E0007C007C007C007C00840084007C007C00F9
:1027F0005C005C003C003C002C002C002C002C00F9
:102800009C009C009C009C009C009C009C009C00E8
:102810009C009C009C009C00A400A4009C009C00C8
:102820009C009C009C009C009C009C009C009C00C8
:10283000940094009C009C009C009C0094009400D8
:102840009C009C009C009C00A400A400AC00AC0078
:10285000AC00AC00A400A400AC00AC00AC00AC0028
:10286000A400A400A400A400A400A4009C009C0058
:102870009400940084008400840084007400740038
:10288000640064005C005C005C005C006400640048
:102890006400640064006400640064006400640018
:1028A00064006400640064006C006C0064006400F8
:1028B000640064006C006C006400640064006400E8
:1028C00064006400640064006C006C006C006C00C8
:1028D000740074006C006C00740074007400740068
:1028E000740074007C007C007C007C007C007C0018
:1028F0007C007C007C007C007C007C0084008400E8
:102900007C007C00840084007C007C0084008400C7
:102910008C008C0084008400840084008400840087
:102920008400840084008400840084007C007C0097
:102930007C007C0084008400840084008400840087
:102940008400840084008400840084008C008C0057
:102950008400840084008400840084008400840057
:102960008400840084008400840084008400840047
:102970008400840084008400840084008400840037
:102980008400840084008400840084008400840027
:102990008400840084008400840084008400840017
:1029A0007C007C008C008C008C008C007C007C0007
:1029B00084008400840084008400840084008400F7
:1029C000840084007C007C007C007C008400840007
:1029D0008400840084008400840084007C007C00E7
:1029E00084008400840084008400840084008400C7
:1029F0008400840084008400840084007C007C00C7
:102A00007C007C00840084008400840084008400B6
:102A10008400840084008400840084007C007C00A6
:102A20007C007C0084008400840084008400840096
:102A30007C007C007C007C007C007C007C007C00B6
:102A40007C007C0084008400840084007C007C0086
:102A500084008400840084007C007C007C007C0076
:102A60007C007C00740074007400740074007400B6
:102A700074007400740074006C006C006C006C00D6
:102A80006C006C006C006C006C006C0074007400D6
:102A90007C007C008C008C009400940094009400D6
:102AA0009C009C009C009C00A400A400A400A40026
:102AB0009C009C009C009C009C009C009400940046
:102AC0009C009C009C009C00A400A4009C009C0016
:102AD0009C009C009C009C009C009C009C009C0016
:102AE0009C009C009C009C009C009C009C009C0006
:102AF0009C009C009C009C009C009C009400940006
:102B00009C009C009C009C00940094009C009C00F5
:102B10009C009C009C009C009C009C009C009C00D5
:102B20009C009C009400940094009400AC00AC00C5
:102B3000C400C400CC00CC00D400D400DC00DC0015
:102B4000DC00DC00DC00DC00DC00DC00D400D400B5
:102B5000BC00BC008C008C006C006C006400640045
:102B60006C006C006C006C007400740074007400E5
:102B70007C007C0074007400740074007C007C0095
:102B8000740074007C007C007C007C007400740085
:102B9000740074007C007C00740074007C007C0075
:102BA0007C007C007C007C007C007C007400740055
:102BB0007C007C007C007C007C007C007C007C0035
:102BC0007C007C007C007C007C007C008400840015
:102BD0007C007C007C007C007C007C008400840005
:102BE0008400840084008400740074005C005C0035
:102BF0003C003C002C002C00340034003400340035
:102C00009C009C009C009C009C009C009C009C00E4
:102C10009C009C009C009C00A400A4009C009C00C4
:102C20009C009C009C009C009C009C009C009C00C4
:102C3000940094009C009C009C009C0094009400D4
:102C40009C009C009C009C00A400A400AC00AC0074
:102C5000AC00AC00A400A400AC00AC00AC00AC0024
:102C6000A400A400A400A400A400A4009C009C0054
:102C70009400940084008400840084007400740034
:102C8000640064005C005C005C005C006400640044
:102C90006400640064006400640064006400640014
:102CA00064006400640064006C006C0064006400F4
:102CB000640064006C006C006400640064006400E4
:102CC00064006400640064006C006C006C006C00C4
:102CD000740074006C006C00740074007400740064
:102CE000740074007C007C007C007C007C007C0014
:102CF0007C007C007C007C007C007C0084008400E4
:102D00007C007C00840084007C007C0084008400C3
:102D10008C008C0084008400840084008400840083
:102D20008400840084008400840084007C007C0093
:102D30007C007C0084008400840084008400840083
:102D40008400840084008400840084008C008C0053
:102D50008400840084008400840084008400840053
:102D60008400840084008400840084008400840043
:102D70008400840084008400840084008400840033
:102D80008400840084008400840084008400840023
:102D90008400840084008400840084008400840013
:102DA0007C007C008C008C008C008C007C007C0003
:102DB00084008400840084008400840084008400F3
:102DC000840084007C007C007C007C008400840003
:102DD0008400840084008400840084007C007C00E3
:102DE00084008400840084008400840084008400C3
:102DF0008400840084008400840084007C007C00C3
:102E00007C007C00840084008400840084008400B2
:102E10008400840084008400840084007C007C00A2
:102E20007C007C0084008400840084008400840092
:102E30007C007C007C007C007C007C007C007C00B2
:102E40007C007C0084008400840084007C007C0082
:102E500084008400840084007C007C007C007C0072
:102E60007C007C00740074007400740074007400B2
:102E700074007400740074006C006C006C006C00D2
:102E80006C006C006C006C006C006C0074007400D2
:102E90007C007C008C008C009400940094009400D2
:102EA0009C009C009C009C00A400A400A400A40022
:102EB0009C009C009C009C009C009C009400940042
:102EC0009C009C009C009C00A400A4009C009C0012
:102ED0009C009C009C009C009C009C009C009C0012
:102EE0009C009C009C009C009C009C009C009C0002
:102EF0009C009C009C009C009C009C009400940002
:102F00009C009C009C009C00940094009C009C00F1
:102F10009C009C009C009C009C009C009C009C00D1
:102F20009C009C009400940094009400AC00AC00C1
:102F3000C400C400CC00CC00D400D400DC00DC0011
:102F4000DC00DC00DC00DC00DC00DC00D400D400B1
:102F5000BC00BC008C008C006C006C006400640041
:102F60006C006C006C006C007400740074007400E1
:102F70007C007C0074007400740074007C007C0091
:102F8000740074007C007C007C007C007400740081
:102F9000740074007C007C00740074007C007C0071
:102FA0007C007C007C007C007C007C007400740051
:102FB0007C007C007C007C007C007C007C007C0031
:102FC0007C007C007C007C007C007C008400840011
:102FD0007C007C007C007C007C007C008400840001
:102FE0008400840084008400740074005C005C0031
:102FF0003C003C002C002C00340034003400340031
:103000009C009C009C009C009C009C00A400A400D0
:103010009C009C00A400A4009C009C009C009C00C0
:103020009C009C00A400A4009C009C009C009C00B0
:103030009C009C00940094009400940094009400E0
:103040009C009C00A400A400A400A400A400A40070
:10305000AC00AC00AC00AC00AC00AC00A400A40020
:10306000A400A400AC00AC00A400A400A400A40030
:103070008C008C008C008C007C007C006C006C0050
:1030800064006400540054005C005C006400640050
:103090005C005C0064006400640064006C006C0010
:1030A00064006400640064006C006C006C006C00E0
:1030B0006C006C006C006C00640064006C006C00C0
:1030C00064006400640064006400640064006400E0
:1030D000740074006C006C006C006C007400740070
:1030E00074007400740074007C007C007C007C0020
:1030F0007C007C00740074008400840084008400E0
:103100007C007C007C007C00840084008C008C00AF
:103110007C007C00840084007C007C0084008400AF
:103120008400840084008400840084007C007C008F
:1031300084008400840084007C007C008C008C006F
:10314000840084005C005C008400840084008400AF
:10315000840084008400840084008400840084004F
:10316000840084008400840084008400840084003F
:1031700084008400840084007C007C00840084003F
:10318000840084008400840084008400840084001F
:103190008C008C00840084008400840084008400FF
:1031A00084008400840084008400840084008400FF
:1031B000840084007C007C00840084007C007C000F
:1031C00084008400840084008400840084008400DF
:1031D00084008400840084008400840084008400CF
:1031E000840084008C008C008400840084008400AF
:1031F00084008400840084008C008C007C007C00AF
:10320000840084008400840084008400840084009E
:103210008400840084008400840084007C007C009E
:103220007C007C007C007C00840084007C007C00AE
:10323000840084007C007C00840084008C008C006E
:1032400084008400540054007C007C0084008400CE
:103250007C007C0084008400840084007C007C006E
:103260007C007C007C007C007C007C007C007C007E
:10327000740074006C006C00740074006C006C00CE
:103280006C006C006C006C00640064006C006C00EE
:1032900074007400840084008C008C0094009400FE
:1032A0009400940094009400A400A4009C009C004E
:1032B0009C009C009C009C009C009C009C009C002E
:1032C0009C009C009C009C00A400A4009C009C000E
:1032D000A400A4009C009C00A400A4009C009C00EE
:1032E0009C009C009C009C009C009C009C009C00FE
:1032F0009C009C009C009C009C009C009C009C00EE
:10330000940094009C009C00940094009C009C00FD
:103310009C009C009C009C00940094009C009C00DD
:103320009C009C0094009400940094009C009C00DD
:10333000B400B400C400C400D400D400D400D4004D
:10334000DC00DC00D400D400DC00DC00D400D400BD
:10335000CC00CC00AC00AC007400740064006400CD
:103360006C006C006C006C007400740074007400DD
:10337000740074007C007C007C007C007C007C007D
:103380007C007C007C007C007C007C00740074006D
:10339000840084007400740074007400740074006D
:1033A000840084007C007C007C007C00740074003D
:1033B00074007400740074007C007C007C007C004D
:1033C0007C007C00840084007C007C007C007C000D
:1033D0007C007C007C007C008400840084008400ED
:1033E0007C007C007C007C00640064003C003C00AD
:1033F0002C002C002C002C00340034002C002C005D
:103400009C009C009C009C009C009C00A400A400CC
:103410009C009C00A400A4009C009C009C009C00BC
:103420009C009C00A400A4009C009C009C009C00AC
:103430009C009C00940094009400940094009400DC
:103440009C009C00A400A400A400A400A400A4006C
:10345000AC00AC00AC00AC00AC00AC00A400A4001C
:10346000A400A400AC00AC00A400A400A400A4002C
:103470008C008C008C008C007C007C006C006C004C
:1034800064006400540054005C005C00640064004C
:103490005C005C0064006400640064006C006C000C
:1034A00064006400640064006C006C006C006C00DC
:1034B0006C006C006C006C00640064006C006C00BC
:1034C00064006400640064006400640064006400DC
:1034D000740074006C006C006C006C00740074006C
:1034E00074007400740074007C007C007C007C001C
:1034F0007C007C00740074008400840084008400DC
:103500007C007C007C007C00840084008C008C00AB
:103510007C007C00840084007C007C0084008400AB
:103520008400840084008400840084007C007C008B
:1035300084008400840084007C007C008C008C006B
:10354000840084005C005C008400840084008400AB
:10355000840084008400840084008400840084004B
:10356000840084008400840084008400840084003B
:1035700084008400840084007C007C00840084003B
:10358000840084008400840084008400840084001B
:103590008C008C00840084008400840084008400FB
:1035A00084008400840084008400840084008400FB
:1035B000840084007C007C00840084007C007C000B
:1035C00084008400840084008400840084008400DB
:1035D00084008400840084008400840084008400CB
:1035E000840084008C008C008400840084008400AB
:1035F00084008400840084008C008C007C007C00AB
:10360000840084008400840084008400840084009A
:103610008400840084008400840084007C007C009A
:103620007C007C007C007C00840084007C007C00AA
:10363000840084007C007C00840084008C008C006A
:1036400084008400540054007C007C0084008400CA
:103650007C007C0084008400840084007C007C006A
:103660007C007C007C007C007C007C007C007C007A
:10367000740074006C006C00740074006C006C00CA
:103680006C006C006C006C00640064006C006C00EA
:1036900074007400840084008C008C0094009400FA
:1036A0009400940094009400A400A4009C009C004A
:1036B0009C009C009C009C009C009C009C009C002A
:1036C0009C009C009C009C00A400A4009C009C000A
:1036D000A400A4009C009C00A400A4009C009C00EA
:1036E0009C009C009C009C009C009C009C009C00FA
:1036F0009C009C009C009C009C009C009C009C00EA
:10370000940094009C009C00940094009C009C00F9
:103710009C009C009C009C00940094009C009C00D9
:103720009C009C0094009400940094009C009C00D9
:10373000B400B400C400C400D400D400D400D40049
:10374000DC00DC00D400D400DC00DC00D400D400B9
:10375000CC00CC00AC00AC007400740064006400C9
:103760006C006C006C006C007400740074007400D9
:10377000740074007C007C007C007C007C007C0079
:103780007C007C007C007C007C007C007400740069
:103790008400840074007400740074007400740069
:1037A000840084007C007C007C007C007400740039
:1037B00074007400740074007C007C007C007C0049
:1037C0007C007C00840084007C007C007C007C0009
:1037D0007C007C007C007C008400840084008400E9
:1037E0007C007C007C007C00640064003C003C00A9
:1037F0002C002C002C002C00340034002C002C0059
:10380000A400A4009C009C009C009C009C009C00C8
:103810009C009C009C009C009C009C009C009C00C8
:103820009C009C009C009C00940094009C009C00C8
:103830009C009C009C009C009C009C009C009C00A8
:10384000A400A400A400A400A400A400AC00AC0048
:10385000A400A400A400A400A400A400AC00AC0038
:10386000AC00AC00A400A400A400A4009C009C0038
:1038700094009400840084007C007C007400740038
:10388000640064005C005C00540054005C005C0058
:103890005C005C0064006400640064006400640018
:1038A000640064006C006C00640064006C006C00D8
:1038B000640064006C006C00640064006C006C00C8
:1038C0006C006C0064006400640064006C006C00B8
:1038D0006C006C0074007400740074007400740058
:1038E00074007400740074007C007C007C007C0018
:1038F0007C007C007C007C007C007C0084008400D8
:103900007C007C007C007C00840084007C007C00C7
:103910008400840084008400840084008C008C0077
:103920008400840084008400840084007C007C0087
:103930008400840084008400840084008400840067
:103940007C007C0084008400840084008400840067
:103950008400840084008400840084008400840047
:10396000840084007C007C00840084008400840047
:103970008400840084008400840084007C007C0037
:1039800084008400840084008C008C008400840007
:1039900084008400840084007C007C008400840017
:1039A000840084007C007C00840084008400840007
:1039B00084008400840084008400840084008400E7
:1039C00084008400840084007C007C0084008400E7
:1039D000840084007C007C008400840084008400D7
:1039E00084008400840084008400840084008400B7
:1039F0008C008C007C007C008400840084008400A7
:103A0000840084008C008C00840084008400840086
:103A10007C007C007C007C00840084007C007C00B6
:103A20008400840084008400840084007C007C0086
:103A30007C007C00840084007C007C007C007C0096
:103A4000840084007C007C007C007C008400840076
:103A500084008400840084007C007C007C007C0066
:103A60007C007C007C007C007C007C007400740086
:103A70007400740074007400740074006C006C00B6
:103A80006C006C006C006C006C006C006C006C00D6
:103A9000740074007C007C008C008C009400940006
:103AA000940094009C009C009C009C00A400A40036
:103AB000A400A400A400A400A400A4009C009C00F6
:103AC0009C009C009C009C009C009C00A400A40006
:103AD000A400A400A400A400A400A400A400A400C6
:103AE0009C009C009C009C009C009C009C009C00F6
:103AF0009C009C009C009C00940094009C009C00F6
:103B00009C009C009C009C009C009C0094009400E5
:103B10009C009C009C009C00940094009C009C00D5
:103B2000940094009C009C009400940094009400E5
:103B3000A400A400C400C400CC00CC00D400D40075
:103B4000DC00DC00DC00DC00DC00DC00DC00DC0095
:103B5000D400D400C400C400940094006400640045
:103B60006C006C006C006C006C006C006C006C00F5
:103B7000740074006C006C007400740074007400B5
:103B80007C007C00740074007C007C007400740075
:103B90007C007C0074007400740074007C007C0065
:103BA0007C007C00740074007C007C007C007C0045
:103BB000740074007C007C00840084007C007C0025
:103BC0007C007C007C007C007C007C007C007C0015
:103BD000840084007C007C008400840084008400D5
:103BE0007400740054005400340034003400340075
:103BF0003400340034003400340034002C002C0035
:103C0000A400A4009C009C009C009C009C009C00C4
:103C10009C009C009C009C009C009C009C009C00C4
:103C20009C009C009C009C00940094009C009C00C4
:103C30009C009C009C009C009C009C009C009C00A4
:103C4000A400A400A400A400A400A400AC00AC0044
:103C5000A400A400A400A400A400A400AC00AC0034
:103C6000AC00AC00A400A400A400A4009C009C0034
:103C700094009400840084007C007C007400740034
:103C8000640064005C005C00540054005C005C0054
:103C90005C005C0064006400640064006400640014
:103CA000640064006C006C00640064006C006C00D4
:103CB000640064006C006C00640064006C006C00C4
:103CC0006C006C0064006400640064006C006C00B4
:103CD0006C006C0074007400740074007400740054
:103CE00074007400740074007C007C007C007C0014
:103CF0007C007C007C007C007C007C0084008400D4
:103D00007C007C007C007C00840084007C007C00C3
:103D10008400840084008400840084008C008C0073
:103D20008400840084008400840084007C007C0083
:103D30008400840084008400840084008400840063
:103D40007C007C0084008400840084008400840063
:103D50008400840084008400840084008400840043
:103D6000840084007C007C00840084008400840043
:103D70008400840084008400840084007C007C0033
:103D800084008400840084008C008C008400840003
:103D900084008400840084007C007C008400840013
:103DA000840084007C007C00840084008400840003
:103DB00084008400840084008400840084008400E3
:103DC00084008400840084007C007C0084008400E3
:103DD000840084007C007C008400840084008400D3
:103DE00084008400840084008400840084008400B3
:103DF0008C008C007C007C008400840084008400A3
:103E0000840084008C008C00840084008400840082
:103E10007C007C007C007C00840084007C007C00B2
:103E20008400840084008400840084007C007C0082
:103E30007C007C00840084007C007C007C007C0092
:103E4000840084007C007C007C007C008400840072
:103E500084008400840084007C007C007C007C0062
:103E60007C007C007C007C007C007C007400740082
:103E70007400740074007400740074006C006C00B2
:103E80006C006C006C006C006C006C006C006C00D2
:103E9000740074007C007C008C008C009400940002
:103EA000940094009C009C009C009C00A400A40032
:103EB000A400A400A400A400A400A4009C009C00F2
:103EC0009C009C009C009C009C009C00A400A40002
:103ED000A400A400A400A400A400A400A400A400C2
:103EE0009C009C009C009C009C009C009C009C00F2
:103EF0009C009C009C009C00940094009C009C00F2
:103F00009C009C009C009C009C009C0094009400E1
:103F10009C009C009C009C00940094009C009C00D1
:103F2000940094009C009C009400940094009400E1
:103F3000A400A400C400C400CC00CC00D400D40071
:103F4000DC00DC00DC00DC00DC00DC00DC00DC0091
:103F5000D400D400C400C400940094006400640041
:103F60006C006C006C006C006C006C006C006C00F1
:103F7000740074006C006C007400740074007400B1
:103F80007C007C00740074007C007C007400740071
:103F90007C007C0074007400740074007C007C0061
:103FA0007C007C00740074007C007C007C007C0041
:103FB000740074007C007C00840084007C007C0021
:103FC0007C007C007C007C007C007C007C007C0011
:103FD000840084007C007C008400840084008400D1
:103FE0007400740054005400340034003400340071
:103FF0003400340034003400340034002C002C0031
:104000009C009C009C009C009C009C009C009C00D0
:104010009C009C009C009C009C009C009C009C00C0
:104020009C009C009C009C009C009C009C009C00B0
:104030009C009C009400940094009400A400A400B0
:10404000A400A400A400A400AC00AC00AC00AC0030
:10405000A400A400AC00AC00A400A400A400A40030
:10406000A400A400A400A4009C009C009C009C0050
:104070008C008C008C008C00840084006C006C0030
:10408000640064005C005C005C005C005C005C0040
:104090005C005C0064006400640064005C005C0020
:1040A0006C006C006C006C006C006C006C006C00B0
:1040B00064006400640064006C006C006C006C00C0
:1040C0006400640064006400640064006C006C00C0
:1040D0006C006C0074007400740074006C006C0060
:1040E00074007400740074007C007C007C007C0010
:1040F000740074007C007C007C007C0084008400E0
:10410000840084008400840084008400840084008F
:104110007C007C008400840084008400840084008F
:10412000840084008400840084008400840084006F
:10413000840084007C007C007C007C00840084007F
:10414000840084008400840084008400840084004F
:10415000840084008C008C008C008C008C008C000F
:10416000840084008C008C0084008400840084001F
:104170008C008C008400840084008400840084000F
:10418000840084008400840084008400840084000F
:10419000840084007C007C00840084008C008C00FF
:1041A000840084007C007C008400840084008400FF
:1041B000840084008C008C008400840084008400CF
:1041C0007C007C00840084008400840084008400DF
:1041D0007C007C00840084008400840084008400CF
:1041E000840084008C008C00840084008C008C008F
:1041F0008400840084008400840084007C007C00AF
:10420000840084008400840084008400840084008E
:104210008400840084008400840084007C007C008E
:1042200084008400840084007C007C007C007C008E
:10423000840084007C007C00840084007C007C007E
:104240007C007C0084008400840084007C007C006E
:104250007C007C007C007C007C007C00840084006E
:10426000840084007C007C00740074007C007C006E
:1042700074007400740074006C006C007C007C009E
:104280006C006C006C006C006C006C0064006400DE
:10429000740074007C007C008C008C008C008C000E
:1042A00094009400940094009C009C009C009C004E
:1042B0009C009C00A400A4009C009C00A400A400FE
:1042C0009C009C00A400A400A400A400A400A400DE
:1042D0009C009C009C009C00A400A400A400A400DE
:1042E0009C009C009C009C009C009C009C009C00EE
:1042F0009C009C009C009C009400940094009400FE
:104300009C009C009C009C009C009C0094009400DD
:104310009C009C00940094009400940094009400ED
:10432000940094009C009C00940094009C009C00CD
:1043300094009400B400B400C400C400D400D400BD
:10434000DC00DC00DC00DC00DC00DC00DC00DC008D
:10435000DC00DC00CC00CC00B400B4007C007C00AD
:104360006C006C0064006400740074006C006C00ED
:104370007C007C007400740074007400740074008D
:104380007C007C007C007C007C007C00740074005D
:10439000740074007C007C00740074007C007C005D
:1043A0007C007C00740074007C007C007C007C003D
:1043B000740074007C007C007C007C007C007C002D
:1043C0007C007C00840084007C007C0084008400ED
:1043D000840084008C008C008400840074007400CD
:1043E000540054002C002C002C002C002C002C001D
:1043F0002C002C00340034002C002C00340034003D
:104400009C009C009C009C009C009C009C009C00CC
:104410009C009C009C009C009C009C009C009C00BC
:104420009C009C009C009C009C009C009C009C00AC
:104430009C009C009400940094009400A400A400AC
:10444000A400A400A400A400AC00AC00AC00AC002C
:10445000A400A400AC00AC00A400A400A400A4002C
:10446000A400A400A400A4009C009C009C009C004C
:104470008C008C008C008C00840084006C006C002C
:10448000640064005C005C005C005C005C005C003C
:104490005C005C0064006400640064005C005C001C
:1044A0006C006C006C006C006C006C006C006C00AC
:1044B00064006400640064006C006C006C006C00BC
:1044C0006400640064006400640064006C006C00BC
:1044D0006C006C0074007400740074006C006C005C
:1044E00074007400740074007C007C007C007C000C
:1044F000740074007C007C007C007C0084008400DC
:10450000840084008400840084008400840084008B
:104510007C007C008400840084008400840084008B
:10452000840084008400840084008400840084006B
:10453000840084007C007C007C007C00840084007B
:10454000840084008400840084008400840084004B
:10455000840084008C008C008C008C008C008C000B
:10456000840084008C008C0084008400840084001B
:104570008C008C008400840084008400840084000B
:10458000840084008400840084008400840084000B
:10459000840084007C007C00840084008C008C00FB
:1045A000840084007C007C008400840084008400FB
:1045B000840084008C008C008400840084008400CB
:1045C0007C007C00840084008400840084008400DB
:1045D0007C007C00840084008400840084008400CB
:1045E000840084008C008C00840084008C008C008B
:1045F0008400840084008400840084007C007C00AB
:10460000840084008400840084008400840084008A
:104610008400840084008400840084007C007C008A
:1046200084008400840084007C007C007C007C008A
:10463000840084007C007C00840084007C007C007A
:104640007C007C0084008400840084007C007C006A
:104650007C007C007C007C007C007C00840084006A
:10466000840084007C007C00740074007C007C006A
:1046700074007400740074006C006C007C007C009A
:104680006C006C006C006C006C006C0064006400DA
:10469000740074007C007C008C008C008C008C000A
:1046A00094009400940094009C009C009C009C004A
:1046B0009C009C00A400A4009C009C00A400A400FA
:1046C0009C009C00A400A400A400A400A400A400DA
:1046D0009C009C009C009C00A400A400A400A400DA
:1046E0009C009C009C009C009C009C009C009C00EA
:1046F0009C009C009C009C009400940094009400FA
:104700009C009C009C009C009C009C0094009400D9
:104710009C009C00940094009400940094009400E9
:10472000940094009C009C00940094009C009C00C9
:1047300094009400B400B400C400C400D400D400B9
:10474000DC00DC00DC00DC00DC00DC00DC00DC0089
:10475000DC00DC00CC00CC00B400B4007C007C00A9
:104760006C006C0064006400740074006C006C00E9
:104770007C007C0074007400740074007400740089
:104780007C007C007C007C007C007C007400740059
:10479000740074007C007C00740074007C007C0059
:1047A0007C007C00740074007C007C007C007C0039
:1047B000740074007C007C007C007C007C007C0029
:1047C0007C007C00840084007C007C0084008400E9
:1047D000840084008C008C008400840074007400C9
:1047E000540054002C002C002C002C002C002C0019
:1047F0002C002C00340034002C002C003400340039
:104800009C009C009C009C009C009C009C009C00C8
:104810009C009C009C009C009C009C00A400A400A8
:10482000A400A400A400A4009C009C009C009C0088
:10483000940094009C009C009C009C009C009C00A8
:10484000AC00AC00A400A400AC00AC00A400A40028
:10485000A400A400A400A400A400A400A400A40038
:10486000AC00AC00A400A4009C009C009C009C0038
:104870008C008C00840084007C007C006C006C0048
:104880005C005C00640064005C005C005C005C0038
:104890005C005C00640064005C005C006400640018
:1048A00064006400640064006C006C0064006400D8
:1048B000640064006C006C006400640064006400C8
:1048C000640064006C006C00640064006C006C00A8
:1048D0006C006C0074007400740074007400740048
:1048E0007400740074007400740074007C007C0018
:1048F0007C007C007C007C007400740084008400D8
:104900008400840084008400840084008400840087
:104910008400840084008400840084008400840077
:104920007C007C007C007C00840084008400840087
:10493000840084007C007C00840084007C007C0077
:104940008400840084008400840084008400840047
:104950007C007C0084008400840084008400840047
:10496000840084008C008C00840084008400840017
:104970008400840084008400840084008400840017
:104980008400840084008400840084008400840007
:1049900084008400840084008400840084008400F7
:1049A00084008400840084008C008C0084008400D7
:1049B0008C008C00840084008400840084008400C7
:1049C0007C007C00840084008400840084008400D7
:1049D000840084007C007C007C007C0084008400D7
:1049E00084008400840084008400840084008400A7
:1049F000840084007C007C008400840084008400A7
:104A00008400840084008400840084008400840086
:104A100084008400840084007C007C007C007C0096
:104A20007C007C0084008400840084008400840076
:104A3000840084007C007C00840084007C007C0076
:104A4000840084007C007C00840084007C007C0066
:104A5000840084007C007C007C007C008400840056
:104A6000840084007C007C007C007C007C007C0056
:104A70007400740074007400740074007400740096
:104A80006C006C00740074006400640064006400D6
:104A90006C006C00740074007C007C008C008C0046
:104AA0008C008C009C009C009C009C00A400A40036
:104AB0009C009C00A400A4009C009C00A400A400F6
:104AC000A400A4009C009C009C009C00A400A400E6
:104AD000A400A400A400A400A400A400A400A400B6
:104AE0009C009C009C009C009C009C009C009C00E6
:104AF000A400A4009C009C009C009C009C009C00C6
:104B00009C009C009C009C009C009C009C009C00C5
:104B10009C009C009C009C009C009C009C009C00B5
:104B20009C009C00940094009400940094009400D5
:104B30008C008C009C009C00BC00BC00CC00CC0015
:104B4000D400D400DC00DC00DC00DC00DC00DC0095
:104B5000DC00DC00D400D400C400C4009C009C0035
:104B600064006400640064006C006C006C006C0005
:104B7000740074006C006C00740074007C007C0095
:104B80007C007C007C007C007C007C007400740055
:104B900084008400840084007C007C007C007C0015
:104BA0007C007C00840084007C007C007400740025
:104BB000840084007C007C00840084007C007C00F5
:104BC0008400840084008400840084008C008C00B5
:104BD0008C008C007C007C006C006C005400540045
:104BE0003400340024002400340034002C002C0055
:104BF00034003400340034002C002C002C002C0035
:104C00009C009C009C009C009C009C009C009C00C4
:104C10009C009C009C009C009C009C00A400A400A4
:104C2000A400A400A400A4009C009C009C009C0084
:104C3000940094009C009C009C009C009C009C00A4
:104C4000AC00AC00A400A400AC00AC00A400A40024
:104C5000A400A400A400A400A400A400A400A40034
:104C6000AC00AC00A400A4009C009C009C009C0034
:104C70008C008C00840084007C007C006C006C0044
:104C80005C005C00640064005C005C005C005C0034
:104C90005C005C00640064005C005C006400640014
:104CA00064006400640064006C006C0064006400D4
:104CB000640064006C006C006400640064006400C4
:104CC000640064006C006C00640064006C006C00A4
:104CD0006C006C0074007400740074007400740044
:104CE0007400740074007400740074007C007C0014
:104CF0007C007C007C007C007400740084008400D4
:104D00008400840084008400840084008400840083
:104D10008400840084008400840084008400840073
:104D20007C007C007C007C00840084008400840083
:104D3000840084007C007C00840084007C007C0073
:104D40008400840084008400840084008400840043
:104D50007C007C0084008400840084008400840043
:104D6000840084008C008C00840084008400840013
:104D70008400840084008400840084008400840013
:104D80008400840084008400840084008400840003
:104D900084008400840084008400840084008400F3
:104DA00084008400840084008C008C0084008400D3
:104DB0008C008C00840084008400840084008400C3
:104DC0007C007C00840084008400840084008400D3
:104DD000840084007C007C007C007C0084008400D3
:104DE00084008400840084008400840084008400A3
:104DF000840084007C007C008400840084008400A3
:104E00008400840084008400840084008400840082
:104E100084008400840084007C007C007C007C0092
:104E20007C007C0084008400840084008400840072
:104E3000840084007C007C00840084007C007C0072
:104E4000840084007C007C00840084007C007C0062
:104E5000840084007C007C007C007C008400840052
:104E6000840084007C007C007C007C007C007C0052
:104E70007400740074007400740074007400740092
:104E80006C006C00740074006400640064006400D2
:104E90006C006C00740074007C007C008C008C0042
:104EA0008C008C009C009C009C009C00A400A40032
:104EB0009C009C00A400A4009C009C00A400A400F2
:104EC000A400A4009C009C009C009C00A400A400E2
:104ED000A400A400A400A400A400A400A400A400B2
:104EE0009C009C009C009C009C009C009C009C00E2
:104EF000A400A4009C009C009C009C009C009C00C2
:104F00009C009C009C009C009C009C009C009C00C1
:104F10009C009C009C009C009C009C009C009C00B1
:104F20009C009C00940094009400940094009400D1
:104F30008C008C009C009C00BC00BC00CC00CC0011
:104F4000D400D400DC00DC00DC00DC00DC00DC0091
:104F5000DC00DC00D400D400C400C4009C009C0031
:104F600064006400640064006C006C006C006C0001
:104F7000740074006C006C00740074007C007C0091
:104F80007C007C007C007C007C007C007400740051
:104F900084008400840084007C007C007C007C0011
:104FA0007C007C00840084007C007C007400740021
:104FB000840084007C007C00840084007C007C00F1
:104FC0008400840084008400840084008C008C00B1
:104FD0008C008C007C007C006C006C005400540041
:104FE0003400340024002400340034002C002C0051
:104FF00034003400340034002C002C002C002C0031
:105000009C009C009C009C009C009C009C009C00C0
:105010009C009C00A400A4009C009C009C009C00A0
:105020009C009C009C009C009C009C009C009C00A0
:10503000940094009C009C009C009C009C009C00A0
:10504000A400A400A400A400A400A400A400A40040
:10505000AC00AC00A400A400A400A400A400A40020
:105060009C009C00A400A4009C009C009C009C0050
:105070009400940084008400840084007C007C0000
:105080006C006C0064006400540054005C005C0020
:105090006400640064006400640064006C006C00E0
:1050A000640064006C006C00640064006C006C00C0
:1050B00064006400640064006C006C0064006400C0
:1050C0006C006C00640064006400640064006400B0
:1050D0006C006C006C006C00740074006C006C0060
:1050E0007C007C0074007400740074007400740010
:1050F0007C007C007C007C007C007C0084008400C0
:105100007C007C007C007C007C007C0084008400AF
:105110008400840084008400840084007C007C007F
:105120007C007C008400840084008400840084006F
:10513000840084008400840084008400840084004F
:10514000840084007C007C0084008400840084004F
:10515000840084007C007C0084008400840084003F
:10516000840084007C007C007C007C00840084003F
:105170007C007C008400840084008400840084001F
:105180008C008C00840084008400840084008400EF
:1051900084008400840084008400840084008400EF
:1051A00084008400840084008400840084008400DF
:1051B00084008400840084008C008C0084008400BF
:1051C00084008400840084008400840084008400BF
:1051D0007C007C00840084007C007C0084008400CF
:1051E000840084008400840084008400840084009F
:1051F0008C008C008400840084008400840084007F
:10520000840084007C007C00840084007C007C009E
:10521000940094007C007C00840084007C007C006E
:105220007C007C007C007C007C007C00840084008E
:10523000840084007C007C007C007C00840084006E
:105240007C007C007C007C0084008400840084005E
:10525000840084007C007C00840084007C007C004E
:1052600084008400740074007C007C007C007C005E
:105270008C008C007C007C0074007400740074004E
:105280006C006C006C006C006C006C0064006400CE
:105290006C006C0074007400840084008C008C002E
:1052A00094009400940094009C009C009C009C003E
:1052B0009C009C00A400A4009C009C00A400A400EE
:1052C000A400A4009C009C009C009C00A400A400DE
:1052D000A400A400A400A4009C009C00A400A400BE
:1052E000A400A4009C009C009C009C009C009C00CE
:1052F0009C009C00A400A400940094009C009C00CE
:105300009C009C009C009C009C009C009C009C00BD
:105310009C009C00940094009C009C009C009C00BD
:105320009C009C00940094009C009C0094009400BD
:105330009C009C008C008C00A400A400C400C4004D
:10534000CC00CC00DC00DC00DC00DC00DC00DC009D
:10535000DC00DC00DC00DC00CC00CC00BC00BC00CD
:105360008C008C00640064006C006C006C006C00AD
:10537000740074007400740074007400740074008D
:10538000740074007C007C007C007C007C007C004D
:105390007C007C007C007C00740074007C007C003D
:1053A000740074007C007C007C007C00840084001D
:1053B0007C007C007C007C007C007C0084008400FD
:1053C000840084008C008C00840084008C008C009D
:1053D000840084006C006C005400540034003400DD
:1053E0002C002C0034003400340034002C002C003D
:1053F0003C003C002C002C002C002C002C002C002D
:105400009C009C009C009C009C009C009C009C00BC
:105410009C009C00A400A4009C009C009C009C009C
:105420009C009C009C009C009C009C009C009C009C
:10543000940094009C009C009C009C009C009C009C
:10544000A400A400A400A400A400A400A400A4003C
:10545000AC00AC00A400A400A400A400A400A4001C
:105460009C009C00A400A4009C009C009C009C004C
:105470009400940084008400840084007C007C00FC
:105480006C006C0064006400540054005C005C001C
:105490006400640064006400640064006C006C00DC
:1054A000640064006C006C00640064006C006C00BC
:1054B00064006400640064006C006C0064006400BC
:1054C0006C006C00640064006400640064006400AC
:1054D0006C006C006C006C00740074006C006C005C
:1054E0007C007C007400740074007400740074000C
:1054F0007C007C007C007C007C007C0084008400BC
:105500007C007C007C007C007C007C0084008400AB
:105510008400840084008400840084007C007C007B
:105520007C007C008400840084008400840084006B
:10553000840084008400840084008400840084004B
:10554000840084007C007C0084008400840084004B
:10555000840084007C007C0084008400840084003B
:10556000840084007C007C007C007C00840084003B
:105570007C007C008400840084008400840084001B
:105580008C008C00840084008400840084008400EB
:1055900084008400840084008400840084008400EB
:1055A00084008400840084008400840084008400DB
:1055B00084008400840084008C008C0084008400BB
:1055C00084008400840084008400840084008400BB
:1055D0007C007C00840084007C007C0084008400CB
:1055E000840084008400840084008400840084009B
:1055F0008C008C008400840084008400840084007B
:10560000840084007C007C00840084007C007C009A
:10561000940094007C007C00840084007C007C006A
:105620007C007C007C007C007C007C00840084008A
:10563000840084007C007C007C007C00840084006A
:105640007C007C007C007C0084008400840084005A
:10565000840084007C007C00840084007C007C004A
:1056600084008400740074007C007C007C007C005A
:105670008C008C007C007C0074007400740074004A
:105680006C006C006C006C006C006C0064006400CA
:105690006C006C0074007400840084008C008C002A
:1056A00094009400940094009C009C009C009C003A
:1056B0009C009C00A400A4009C009C00A400A400EA
:1056C000A400A4009C009C009C009C00A400A400DA
:1056D000A400A400A400A4009C009C00A400A400BA
:1056E000A400A4009C009C009C009C009C009C00CA
:1056F0009C009C00A400A400940094009C009C00CA
:105700009C009C009C009C009C009C009C009C00B9
:105710009C009C00940094009C009C009C009C00B9
:105720009C009C00940094009C009C0094009400B9
:105730009C009C008C008C00A400A400C400C40049
:10574000CC00CC00DC00DC00DC00DC00DC00DC0099
:10575000DC00DC00DC00DC00CC00CC00BC00BC00C9
:105760008C008C00640064006C006C006C006C00A9
:105770007400740074007400740074007400740089
:10578000740074007C007C007C007C007C007C0049
:105790007C007C007C007C00740074007C007C0039
:1057A000740074007C007C007C007C008400840019
:1057B0007C007C007C007C007C007C0084008400F9
:1057C000840084008C008C00840084008C008C0099
:1057D000840084006C006C005400540034003400D9
:1057E0002C002C0034003400340034002C002C0039
:1057F0003C003C002C002C002C002C002C002C0029
:105800009C009C009C009C009C009C009C009C00B8
:105810009C009C009C009C009C009C00A400A40098
:105820009C009C009C009C009C009C009C009C0098
:10583000940094009C009C009C009C00A400A40088
:10584000A400A400A400A400A400A400A400A40038
:10585000A400A400A400A400A400A400A400A40028
:105860009C009C009C009C009C009C009C009C0058
:105870009400940084008400840084007C007C00F8
:10588000640064005C005C005C005C005C005C0028
:105890005C005C00640064006400640064006400F8
:1058A00084008400640064006C006C006400640088
:1058B000640064006C006C00640064006C006C00A8
:1058C0006C006C0064006400640064006C006C0098
:1058D0007400740074007400740074007400740028
:1058E000740074007C007C00740074007C007C00F8
:1058F000740074007C007C007C007C007C007C00D8
:10590000840084007C007C007C007C008400840097
:105910008400840084008400840084008400840067
:10592000840084007C007C00840084008400840067
:10593000840084007C007C00840084007C007C0067
:105940007C007C0084008400840084008400840047
:105950008400840084008400840084008400840027
:105960008400840084008400840084008400840017
:105970007C007C007C007C00840084008400840027
:1059800084008400840084007C007C008400840007
:1059900084008400840084008400840084008400E7
:1059A0008400840084008400840084007C007C00E7
:1059B0007C007C007C007C00840084007C007C00F7
:1059C0007C007C00840084007C007C007C007C00E7
:1059D00084008400840084007C007C007C007C00C7
:1059E0008400840084008400840084008400840097
:1059F0008400840084008400840084008400840087
:105A00008400840084008400840084008400840076
:105A10008400840084008400840084008400840066
:105A20007C007C00840084007C007C007C007C0086
:105A30007C007C007C007C007C007C008400840076
:105A400084008400840084007C007C007C007C0056
:105A50007C007C007C007C00840084007C007C0056
:105A60007C007C00740074007C007C007C007C0066
:105A70007C007C007C007C00740074007400740066
:105A80006C006C00740074006400640064006400C6
:105A90006C006C006C006C007C007C008400840056
:105AA00094009400940094009C009C009C009C0036
:105AB0009C009C009C009C00A400A400A400A400E6
:105AC0009C009C00A400A4009C009C009C009C00E6
:105AD000A400A400A400A4009C009C00A400A400B6
